{
  "_format": "hh-sol-artifact-1",
  "contractName": "BetCandidate",
  "sourceName": "contracts/BetCandidate.sol",
  "abi": [
    {
      "inputs": [],
      "stateMutability": "nonpayable",
      "type": "constructor"
    },
    {
      "inputs": [
        {
          "internalType": "address",
          "name": "",
          "type": "address"
        }
      ],
      "name": "allBets",
      "outputs": [
        {
          "internalType": "uint256",
          "name": "amount",
          "type": "uint256"
        },
        {
          "internalType": "uint256",
          "name": "candidate",
          "type": "uint256"
        },
        {
          "internalType": "uint256",
          "name": "timestamp",
          "type": "uint256"
        },
        {
          "internalType": "uint256",
          "name": "claimed",
          "type": "uint256"
        }
      ],
      "stateMutability": "view",
      "type": "function"
    },
    {
      "inputs": [
        {
          "internalType": "uint256",
          "name": "candidate",
          "type": "uint256"
        }
      ],
      "name": "bet",
      "outputs": [],
      "stateMutability": "payable",
      "type": "function"
    },
    {
      "inputs": [],
      "name": "claim",
      "outputs": [],
      "stateMutability": "nonpayable",
      "type": "function"
    },
    {
      "inputs": [],
      "name": "dispute",
      "outputs": [
        {
          "internalType": "string",
          "name": "candidate1",
          "type": "string"
        },
        {
          "internalType": "string",
          "name": "candidate2",
          "type": "string"
        },
        {
          "internalType": "string",
          "name": "image1",
          "type": "string"
        },
        {
          "internalType": "string",
          "name": "image2",
          "type": "string"
        },
        {
          "internalType": "uint256",
          "name": "total1",
          "type": "uint256"
        },
        {
          "internalType": "uint256",
          "name": "total2",
          "type": "uint256"
        },
        {
          "internalType": "uint256",
          "name": "winner",
          "type": "uint256"
        }
      ],
      "stateMutability": "view",
      "type": "function"
    },
    {
      "inputs": [
        {
          "internalType": "uint256",
          "name": "winner",
          "type": "uint256"
        }
      ],
      "name": "finish",
      "outputs": [],
      "stateMutability": "nonpayable",
      "type": "function"
    },
    {
      "inputs": [],
      "name": "netPrize",
      "outputs": [
        {
          "internalType": "uint256",
          "name": "",
          "type": "uint256"
        }
      ],
      "stateMutability": "view",
      "type": "function"
    }
  ],
  "bytecode": "0x60806040526103e860095534801561001657600080fd5b5033600860006101000a81548173ffffffffffffffffffffffffffffffffffffffff021916908373ffffffffffffffffffffffffffffffffffffffff1602179055506040518060e001604052806040518060400160405280600c81526020017f446f6e616c64205472756d70000000000000000000000000000000000000000081525081526020016040518060400160405280600d81526020017f4b616d616c61204861727269730000000000000000000000000000000000000081525081526020016040518060e0016040528060a6815260200161150760a6913981526020016040518060800160405280604a81526020016114bd604a913981526020016000815260200160008152602001600081525060008082015181600001908161013e91906103f7565b50602082015181600101908161015491906103f7565b50604082015181600201908161016a91906103f7565b50606082015181600301908161018091906103f7565b506080820151816004015560a0820151816005015560c082015181600601559050506104c9565b600081519050919050565b7f4e487b7100000000000000000000000000000000000000000000000000000000600052604160045260246000fd5b7f4e487b7100000000000000000000000000000000000000000000000000000000600052602260045260246000fd5b6000600282049050600182168061022857607f821691505b60208210810361023b5761023a6101e1565b5b50919050565b60008190508160005260206000209050919050565b60006020601f8301049050919050565b600082821b905092915050565b6000600883026102a37fffffffffffffffffffffffffffffffffffffffffffffffffffffffffffffffff82610266565b6102ad8683610266565b95508019841693508086168417925050509392505050565b6000819050919050565b6000819050919050565b60006102f46102ef6102ea846102c5565b6102cf565b6102c5565b9050919050565b6000819050919050565b61030e836102d9565b61032261031a826102fb565b848454610273565b825550505050565b600090565b61033761032a565b610342818484610305565b505050565b5b818110156103665761035b60008261032f565b600181019050610348565b5050565b601f8211156103ab5761037c81610241565b61038584610256565b81016020851015610394578190505b6103a86103a085610256565b830182610347565b50505b505050565b600082821c905092915050565b60006103ce600019846008026103b0565b1980831691505092915050565b60006103e783836103bd565b9150826002028217905092915050565b610400826101a7565b67ffffffffffffffff811115610419576104186101b2565b5b6104238254610210565b61042e82828561036a565b600060209050601f831160018114610461576000841561044f578287015190505b61045985826103db565b8655506104c1565b601f19841661046f86610241565b60005b8281101561049757848901518255600182019150602085019450602081019050610472565b868310156104b457848901516104b0601f8916826103bd565b8355505b6001600288020188555050505b505050505050565b610fe5806104d86000396000f3fe6080604052600436106100555760003560e01c8063121de3f61461005a5780634e71d92d146100855780637365870b1461009c57806393bebee8146100b8578063d353a1cb146100f8578063f240f7c314610121575b600080fd5b34801561006657600080fd5b5061006f610152565b60405161007c9190610996565b60405180910390f35b34801561009157600080fd5b5061009a610158565b005b6100b660048036038101906100b191906109e2565b610330565b005b3480156100c457600080fd5b506100df60048036038101906100da9190610a6d565b6104ee565b6040516100ef9493929190610a9a565b60405180910390f35b34801561010457600080fd5b5061011f600480360381019061011a91906109e2565b61051e565b005b34801561012d57600080fd5b50610136610705565b6040516101499796959493929190610b6f565b60405180910390f35b600a5481565b6000600760003373ffffffffffffffffffffffffffffffffffffffff1673ffffffffffffffffffffffffffffffffffffffff1681526020019081526020016000206040518060800160405290816000820154815260200160018201548152602001600282015481526020016003820154815250509050600080600601541180156101ea57508060200151600060060154145b80156101fa575060008160600151145b610239576040517f08c379a000000000000000000000000000000000000000000000000000000000815260040161023090610c46565b60405180910390fd5b60006001600060060154146102535760006005015461025a565b6000600401545b905060008161271084600001516102719190610c95565b61027b9190610d06565b9050600061271082600a546102909190610c95565b61029a9190610d06565b905080600760003373ffffffffffffffffffffffffffffffffffffffff1673ffffffffffffffffffffffffffffffffffffffff168152602001908152602001600020600301819055503373ffffffffffffffffffffffffffffffffffffffff166108fc829081150290604051600060405180830381858888f19350505050158015610329573d6000803e3d6000fd5b5050505050565b600181148061033f5750600281145b61037e576040517f08c379a000000000000000000000000000000000000000000000000000000000815260040161037590610d83565b60405180910390fd5b600034116103c1576040517f08c379a00000000000000000000000000000000000000000000000000000000081526004016103b890610def565b60405180910390fd5b6000806006015414610408576040517f08c379a00000000000000000000000000000000000000000000000000000000081526004016103ff90610e5b565b60405180910390fd5b610410610955565b348160000181815250508181602001818152505042816040018181525050600081606001818152505080600760003373ffffffffffffffffffffffffffffffffffffffff1673ffffffffffffffffffffffffffffffffffffffff16815260200190815260200160002060008201518160000155602082015181600101556040820151816002015560608201518160030155905050600182036104cd5734600060040160008282546104c19190610e7b565b925050819055506104ea565b34600060050160008282546104e29190610e7b565b925050819055505b5050565b60076020528060005260406000206000915090508060000154908060010154908060020154908060030154905084565b600860009054906101000a900473ffffffffffffffffffffffffffffffffffffffff1673ffffffffffffffffffffffffffffffffffffffff163373ffffffffffffffffffffffffffffffffffffffff16146105ae576040517f08c379a00000000000000000000000000000000000000000000000000000000081526004016105a590610efb565b60405180910390fd5b60018114806105bd5750600281145b6105fc576040517f08c379a00000000000000000000000000000000000000000000000000000000081526004016105f390610d83565b60405180910390fd5b6000806006015414610643576040517f08c379a000000000000000000000000000000000000000000000000000000000815260040161063a90610e5b565b60405180910390fd5b80600060060181905550600080600501546000600401546106649190610e7b565b90506000612710600954836106799190610c95565b6106839190610d06565b905080826106919190610f1b565b600a81905550600860009054906101000a900473ffffffffffffffffffffffffffffffffffffffff1673ffffffffffffffffffffffffffffffffffffffff166108fc829081150290604051600060405180830381858888f193505050501580156106ff573d6000803e3d6000fd5b50505050565b600080600001805461071690610f7e565b80601f016020809104026020016040519081016040528092919081815260200182805461074290610f7e565b801561078f5780601f106107645761010080835404028352916020019161078f565b820191906000526020600020905b81548152906001019060200180831161077257829003601f168201915b5050505050908060010180546107a490610f7e565b80601f01602080910402602001604051908101604052809291908181526020018280546107d090610f7e565b801561081d5780601f106107f25761010080835404028352916020019161081d565b820191906000526020600020905b81548152906001019060200180831161080057829003601f168201915b50505050509080600201805461083290610f7e565b80601f016020809104026020016040519081016040528092919081815260200182805461085e90610f7e565b80156108ab5780601f10610880576101008083540402835291602001916108ab565b820191906000526020600020905b81548152906001019060200180831161088e57829003601f168201915b5050505050908060030180546108c090610f7e565b80601f01602080910402602001604051908101604052809291908181526020018280546108ec90610f7e565b80156109395780601f1061090e57610100808354040283529160200191610939565b820191906000526020600020905b81548152906001019060200180831161091c57829003601f168201915b5050505050908060040154908060050154908060060154905087565b6040518060800160405280600081526020016000815260200160008152602001600081525090565b6000819050919050565b6109908161097d565b82525050565b60006020820190506109ab6000830184610987565b92915050565b600080fd5b6109bf8161097d565b81146109ca57600080fd5b50565b6000813590506109dc816109b6565b92915050565b6000602082840312156109f8576109f76109b1565b5b6000610a06848285016109cd565b91505092915050565b600073ffffffffffffffffffffffffffffffffffffffff82169050919050565b6000610a3a82610a0f565b9050919050565b610a4a81610a2f565b8114610a5557600080fd5b50565b600081359050610a6781610a41565b92915050565b600060208284031215610a8357610a826109b1565b5b6000610a9184828501610a58565b91505092915050565b6000608082019050610aaf6000830187610987565b610abc6020830186610987565b610ac96040830185610987565b610ad66060830184610987565b95945050505050565b600081519050919050565b600082825260208201905092915050565b60005b83811015610b19578082015181840152602081019050610afe565b60008484015250505050565b6000601f19601f8301169050919050565b6000610b4182610adf565b610b4b8185610aea565b9350610b5b818560208601610afb565b610b6481610b25565b840191505092915050565b600060e0820190508181036000830152610b89818a610b36565b90508181036020830152610b9d8189610b36565b90508181036040830152610bb18188610b36565b90508181036060830152610bc58187610b36565b9050610bd46080830186610987565b610be160a0830185610987565b610bee60c0830184610987565b98975050505050505050565b7f496e76616c696420636c61696d00000000000000000000000000000000000000600082015250565b6000610c30600d83610aea565b9150610c3b82610bfa565b602082019050919050565b60006020820190508181036000830152610c5f81610c23565b9050919050565b7f4e487b7100000000000000000000000000000000000000000000000000000000600052601160045260246000fd5b6000610ca08261097d565b9150610cab8361097d565b9250828202610cb98161097d565b91508282048414831517610cd057610ccf610c66565b5b5092915050565b7f4e487b7100000000000000000000000000000000000000000000000000000000600052601260045260246000fd5b6000610d118261097d565b9150610d1c8361097d565b925082610d2c57610d2b610cd7565b5b828204905092915050565b7f496e76616c69642063616e646964617465000000000000000000000000000000600082015250565b6000610d6d601183610aea565b9150610d7882610d37565b602082019050919050565b60006020820190508181036000830152610d9c81610d60565b9050919050565b7f496e76616c696420626574000000000000000000000000000000000000000000600082015250565b6000610dd9600b83610aea565b9150610de482610da3565b602082019050919050565b60006020820190508181036000830152610e0881610dcc565b9050919050565b7f4469737075746520636c6f736564000000000000000000000000000000000000600082015250565b6000610e45600e83610aea565b9150610e5082610e0f565b602082019050919050565b60006020820190508181036000830152610e7481610e38565b9050919050565b6000610e868261097d565b9150610e918361097d565b9250828201905080821115610ea957610ea8610c66565b5b92915050565b7f4e6f74206f776e65720000000000000000000000000000000000000000000000600082015250565b6000610ee5600983610aea565b9150610ef082610eaf565b602082019050919050565b60006020820190508181036000830152610f1481610ed8565b9050919050565b6000610f268261097d565b9150610f318361097d565b9250828203905081811115610f4957610f48610c66565b5b92915050565b7f4e487b7100000000000000000000000000000000000000000000000000000000600052602260045260246000fd5b60006002820490506001821680610f9657607f821691505b602082108103610fa957610fa8610f4f565b5b5091905056fea26469706673582212200513d6e3813d93818d7b83f4d5d805c5f5f447c0ce6c71f7688a2ebfe6bd3ae564736f6c634300081b003368747470733a2f2f7777772e7768697465686f7573652e676f762f77702d636f6e74656e742f75706c6f6164732f323032312f30342f5632303231303330354c4a2d303034332e6a706768747470733a2f2f696d616765732e756e73706c6173682e636f6d2f70686f746f2d313538303132383636303031302d6664303237653165353837613f666d3d6a706726713d363026773d333030302669786c69623d72622d342e302e3326697869643d4d3377784d6a4133664442384d48787a5a574679593268384d6e78385a4739755957786b4a54497764484a31625842385a5735384d4878384d487838664441253344",
  "linkReferences": {},
  "deployedLinkReferences": {}
}